:100000000C942B010C945C010C945C010C945C012D
:100010000C945C010C945C010C945C010C945C01EC
:100020000C945C010C945C010C945C010C945C01DC
:100030000C945C010C945C010C945C010C945C01CC
:100040000C945C010C945C010C945C010C945C01BC
:100050000C945C010C945C010C945C010C94D40332
:100060000C945C010C949E030C9474030C945C013E
:100070000C945C010C945C010C945C010C945C018C
:100080000C945C010C945C010C945C010C945C017C
:100090000C945C010C945C010C945C010C945C016C
:1000A0000C945C010C945C010C945C010C945C015C
:1000B0000C945C010C945C010C945C010C945C014C
:1000C0000C945C010C945C010C945C010C945C013C
:1000D0000C945C010C945C010C945C010C945C012C
:1000E0000C945C010C9406030C94F2020C9414031F
:1000F0000C949A010C9441020C948B010C94E10233
:100100000C94FC020C94F8020C941E040C9418033A
:100110000C94C7020C94BC010C94F4010C94C20220
:100120000C945E010C94D9020C9400030C94AE0163
:100130000C940E030C94DD020C94E8020C94EE0275
:100140000C940A030C94E5020C94F40600002100C0
:10015000240027002A002D00300033000101000098
:10016000040107010A0100000A0B02090C0D0E0828
:100170000703040100000000000000000000000070
:10018000000000000000000000000000000000006F
:10019000000012111000000000000000000000002C
:1001A000000000000000000000000000010210201C
:1001B000200808102040102040800201020108049D
:1001C0000201010204081020408080402010080431
:1001D000020180040201804020100804020108048A
:1001E00002010102040810204080010204081020CE
:1001F000408000002200250028002B002E00310046
:10020000340002010000050108010B010505050588
:10021000070508080808020202020A0A080804047E
:1002200004040101010101010101030303030303AC
:100230000303040707070C0C0C0C0C0C0C0C02023B
:10024000020206060606060606060B0B0B0B0B0B38
:100250000B0B1E04F40611241FBECFEFD1E2DEBF4C
:10026000CDBF00E00CBF12E0A0E0B2E0EEEAF0E1AA
:1002700000E00BBF02C007900D92A831B107D9F77B
:1002800025E1A8E1B2E001C01D92A839B207E1F76B
:1002900011E0CAE2D1E000E006C021970109802FF9
:1002A000FE010E941807C932D10780E00807A9F7AC
:1002B0000E94C7040C9445080C940000AF92BF92B2
:1002C000CF92DF92EF92FF920F931F93CF93DF9322
:1002D0006C017B018B01040F151FEB015E01AE1851
:1002E000BF08C017D10759F06991D601ED91FC9173
:1002F0000190F081E02DC6011995892B79F7C50190
:10030000DF91CF911F910F91FF90EF90DF90CF90F1
:10031000BF90AF900895FC01538D448D252F30E0A0
:10032000842F90E0821B930B541710F0CF96089502
:1003300001970895FC01918D828D981761F0A28D2F
:10034000AE0FBF2FB11D5D968C91928D9F5F9F73F5
:10035000928F90E008958FEF9FEF0895FC01918DAB
:10036000828D981731F0828DE80FF11D858D90E018
:1003700008958FEF9FEF0895FC01918D228D892FB5
:1003800090E0805C9F4F821B91098F73992708959D
:1003900081EE94E10E94BC0121E0892B09F420E068
:1003A000822F0895FC01A48DA80FB92FB11DA35A67
:1003B000BF4F2C91848D90E001968F739927848F85
:1003C000A689B7892C93A089B1898C9183708064A8
:1003D0008C93938D848D981306C00288F389E02D49
:1003E00080818F7D80830895EF92FF920F931F93FA
:1003F000CF93DF93EC0181E0888F9B8D8C8D9813D8
:100400001AC0E889F989808185FF15C09FB7F894E3
:10041000EE89FF896083E889F9898081837080642F
:1004200080839FBF81E090E0DF91CF911F910F917A
:10043000FF90EF900895F62E0B8D10E00F5F1F4F89
:100440000F731127E02E8C8D8E110CC00FB607FC98
:10045000FACFE889F989808185FFF5CFCE010E9426
:10046000D201F1CFEB8DEC0FFD2FF11DE35AFF4FC1
:10047000F0829FB7F8940B8FEA89FB8980818062B4
:10048000CFCFCF93DF93EC01888D8823B9F0AA8971
:10049000BB89E889F9898C9185FD03C0808186FD3F
:1004A0000DC00FB607FCF7CF8C9185FFF2CF80818E
:1004B00085FFEDCFCE010E94D201E9CFDF91CF9130
:1004C000089580E090E0892B29F00E94C8018111F5
:1004D0000E94000080E090E0892B49F080E090E0ED
:1004E000892B29F00E94000081110E94000080E009
:1004F00090E0892B49F080E090E0892B29F00E9460
:10050000000081110E94000080E090E0892B49F0FA
:1005100080E090E0892B29F00E94000081110C946A
:1005200000000895282F30E0F901EA59FE4F949118
:10053000F901E455FE4F4491245F3D4FF9012491A8
:10054000222309F435C0992311F191509231F8F426
:10055000E92FF0E08827E055FD4F8F4F0C941807E6
:10056000E102E502C202D902DD02C702E802EE02A0
:10057000F202F802FC02000306030A03C7020E039C
:1005800014031803809180008F7780938000E22FFE
:10059000F0E0EE0FFF1FEE50FE4FA591B4918FB724
:1005A000F894EC91611148C040954E234C938FBF55
:1005B0000895809180008F7DE8CF80918000877FB3
:1005C000E4CF84B58F7784BDE2CF84B58F7DFBCF38
:1005D0008091B0008F778093B000D9CF8091B00028
:1005E0008F7DF9CF809190008F7780939000CFCF4F
:1005F000809190008F7DF9CF80919000877FF5CF1B
:100600008091A0008F778093A000C1CF8091A0003F
:100610008F7DF9CF8091A000877FF5CF8091200159
:100620008F7780932001B3CF809120018F7DF9CF08
:1006300080912001877FF5CF4E2BB8CFCF93DF93EA
:1006400090E0FC01E455FE4F2491845F9D4FFC0136
:1006500084918823D1F090E0880F991FFC01E45B1E
:10066000FE4FA591B491FC01EE50FE4FC591D4917F
:1006700061110EC09FB7F8948C91E22FE0958E2304
:100680008C932881E223E8839FBFDF91CF91089567
:100690008FB7F894EC91E22BEC938FBFF6CF3FB776
:1006A000F89480911D0290911E02A0911F02B091BA
:1006B000200226B5A89B05C02F3F19F00196A11D69
:1006C000B11D3FBFBA2FA92F982F8827BC01CD019C
:1006D000620F711D811D911D42E0660F771F881FFB
:1006E000991F4A95D1F708951F920F920FB60F9256
:1006F00011240BB60F922F933F934F935F936F93F9
:100700007F938F939F93AF93BF93EF93FF9381EE6C
:1007100094E10E94D201FF91EF91BF91AF919F911F
:100720008F917F916F915F914F913F912F910F909A
:100730000BBE0F900FBE0F901F9018951F920F9237
:100740000FB60F9211240BB60F922F938F939F9396
:10075000EF93FF93E091F114F091F2148081E09116
:10076000F714F091F81482FD1DC090818091FA1465
:100770008F5F8F732091FB14821741F0E091FA1480
:10078000F0E0EF51FB4E958F8093FA14FF91EF91BB
:100790009F918F912F910F900BBE0F900FBE0F90D6
:1007A0001F9018958081F2CF1F920F920FB60F9273
:1007B00011242F933F938F939F93AF93BF93809177
:1007C000190290911A02A0911B02B0911C02309163
:1007D000180223E0230F2D3758F50196A11DB11DF6
:1007E000209318028093190290931A02A0931B027F
:1007F000B0931C0280911D0290911E02A0911F02D5
:10080000B09120020196A11DB11D80931D0290930D
:100810001E02A0931F02B0932002BF91AF919F913F
:100820008F913F912F910F900FBE0F901F901895B1
:1008300026E8230F0296A11DB11DD2CFCF93DF93DF
:100840001092E4141092E31488EE93E0A0E0B0E07C
:100850008093E5149093E614A093E714B093E81402
:100860008AE092E09093E2148093E11485EC90E0AA
:100870009093EE148093ED1484EC90E09093F01438
:100880008093EF1480EC90E09093F2148093F11435
:1008900081EC90E09093F4148093F31482EC90E058
:1008A0009093F6148093F51486EC90E09093F814EE
:1008B0008093F7141092FA141092FB141092FC1407
:1008C0001092FD1410927F151092861510928D15BE
:1008D00010928E1510928F151092901581E08093D2
:1008E0008C158093891510928A1592E090938B1540
:1008F00080937E15C0E1DEE0D0938315C09382150E
:1009000080E19EE00E9420079093881580938715D0
:100910000097A1F1FC019E01119221503040E1F7B6
:1009200080EB94E0909381158093801583E090E0B4
:10093000909385158093841580917F15882341F0CD
:1009400061E083E00E941E0360E083E00E94920267
:10095000EFE0F2E0E491F0E0EE0FFF1FEE50FE4F0B
:10096000859194919093921580939115EFEAF1E01F
:10097000E491E0939315DF91CF9108951092831540
:10098000109282151092811510928015CFCFCF93BF
:10099000DF9300D000D000D0CDB7DEB7789484B517
:1009A000826084BD84B5816084BD85B5826085BD6B
:1009B00085B5816085BD80916E00816080936E00F9
:1009C00010928100809181008260809381008091EB
:1009D000810081608093810080918000816080939C
:1009E00080008091B10084608093B1008091B0005C
:1009F00081608093B000809191008260809391002B
:100A0000809191008160809391008091900081603D
:100A1000809390008091A10082608093A1008091DA
:100A2000A10081608093A1008091A00081608093EB
:100A3000A000809121018260809321018091210199
:100A40008160809321018091200181608093200149
:100A500080917A00846080937A0080917A0082602D
:100A600080937A0080917A00816080937A008091EF
:100A70007A00806880937A001092C100809184157A
:100A80009091851597FD08C061E00E941E0360E00B
:100A9000809184150E94920281E080937F1560917D
:100AA0008615623029F120918715309188156150A3
:100AB000C9F070E08FEF91E00E940407F9014091C6
:100AC000821550918315CF01821B930B84179507D4
:100AD00060F44081469FC001479F900D1124908390
:100AE0003196EDCF70E060E0E9CF82E0809386152B
:100AF00061E082E00E949202E091F114F091F21420
:100B000082E08083E091ED14F091EE141082E09188
:100B1000EF14F091F0148FEC80831092F914E091AF
:100B2000F514F091F61486E08083E091F314F091CF
:100B3000F414808180618083E091F314F091F414C7
:100B4000808188608083E091F314F091F4148081B7
:100B500080688083E091F314F091F41480818F7D9C
:100B60008083CC24CA94DC2CEC2CF12C18E0E1E23C
:100B7000F2E0C192D192E192F19224E1E13EF207DA
:100B8000C1F7E1E2F2E030E020E080918015909141
:100B900081152817390708F042C080809180A28013
:100BA000B380C501AA27BB27382E492C5A2C6B2CA1
:100BB0007724742D082D60918615662361F0869F39
:100BC000A0011124352E649D20011124752D689DEE
:100BD000C0011124092FB0918C15409187155091B7
:100BE000881580918915B813ABC0C901880F991F6A
:100BF000820F931F480F591F80918915840F952FDD
:100C0000911DDC013C92A0918A15A40FB52FB11D56
:100C10007C9380918B15480F511DDA010C932F5F47
:100C20003F4F34962C32B1E03B0709F0AECF8091B4
:100C3000871590918815892B09F47FC080908D15B8
:100C400090908E15A0908F15B09090150E944F0334
:100C5000681579058A059B0550F40E944F0360933F
:100C60008D1570938E1580938F15909390150E941B
:100C70004F0380908D1590908E15A0908F15B09099
:100C80009015681979098A099B096C3271408105B0
:100C90009105A0F2F89480918215909183159A8322
:100CA0008983E0918715F0918815DF011196808185
:100CB000898790917E15E0919115F0919215809120
:100CC0009315992309F458C09081982B98879081A7
:100CD000809589238F838F818C831B8358856F81B7
:100CE00049853B812C8189819A81508347FD252F3D
:100CF0003A952083262F39F0441F00C000006083FE
:100D0000000000C0F2CF38E04D91608300000197F1
:100D100061F7F0939215E093911549873B832C83FB
:100D20009A83898378940E944F0360938D15709302
:100D30008E1580938F15909390150E94610217CFA6
:100D4000CF0181529240480F591F4B2C55246624E5
:100D50007724842C662351F0862F90E0849D5001E7
:100D6000859DB00C949DB00C11248B2CCA018B0F67
:100D7000911DDC018C9240CF9081982B98879081B7
:100D8000809589238F838F818E831D8358856F8102
:100D900049853D812E8189819A81508347FD252F88
:100DA00000C000C0208300C000C000C000C000C060
:100DB00060830000262F3A9541F0441F000000C0D8
:100DC00000C000C000C000C0E8CF38E04D9100C0B6
:100DD000608300C0019709F7F0939215E093911595
:100DE00049873D832E839CCF8091871590918815EC
:100DF0000E94BC07809184159091851597FD03C0D2
:100E000060E00C941E030895AA1BBB1B51E107C0B0
:100E1000AA1FBB1FA617B70710F0A61BB70B881F8A
:100E2000991F5A95A9F780959095BC01CD01089519
:100E3000EE0FFF1F881F8BBF0790F691E02D1994CE
:100E40000F931F93CF93DF938230910510F482E0CC
:100E500090E0E0919615F091971530E020E0B0E039
:100E6000A0E0309799F42115310509F44AC0281BF8
:100E7000390B24303105D8F58A819B8161157105C4
:100E800089F1FB0193838283FE0111C0408151816E
:100E90000281138148175907E0F04817590799F460
:100EA000109761F012960C93129713961C9332963A
:100EB000CF01DF91CF911F910F9108950093961567
:100EC00010939715F4CF2115310551F042175307B0
:100ED00038F0A901DB019A01BD01DF01F801C1CFA2
:100EE000EF01F9CF9093971580939615CDCFFE0122
:100EF000E20FF31F819391932250310939832883A4
:100F0000D7CF2091941530919515232B41F4209142
:100F1000020230910302309395152093941520918D
:100F20000002309101022115310541F42DB73EB781
:100F30004091040250910502241B350BE091941559
:100F4000F0919515E217F307A0F42E1B3F0B28171D
:100F5000390778F0AC014E5F5F4F2417350748F032
:100F60004E0F5F1F50939515409394158193919365
:100F70009FCFF0E0E0E09CCFCF93DF930097E9F0C4
:100F8000FC01329713821282A0919615B0919715A9
:100F9000ED0130E020E01097A1F420813181820F33
:100FA000931F20919415309195152817390709F052
:100FB00061C0F0939515E0939415DF91CF9108955A
:100FC000EA01CE17DF07E8F54A815B819E014115F2
:100FD0005105B1F7E901FB83EA8349915991C40FA7
:100FE000D51FEC17FD0761F4808191810296840F73
:100FF000951FE90199838883828193819B838A83EA
:10100000F0E0E0E012968D919C9113970097B9F56E
:101010002D913C911197CD010296820F931F209143
:101020009415309195152817390739F6309751F5F1
:101030001092971510929615B0939515A09394154C
:10104000BCCFD383C28340815181840F951FC817C1
:10105000D90761F44E5F5F4F88819981480F591F0E
:10106000518340838A819B8193838283211531053B
:1010700009F0B0CFF0939715E09396159ECFFD0140
:10108000DC01C0CF13821282D7CF11E0CAE2D1E0D7
:1010900000E006C0802FFE010E9418072196011D66
:0E10A000CB32D10780E00807A9F7F894FFCF04
:1010AE0000009815800000000000F4015E018B0125
:0810BE004102BC019A01AE01E0
:00000001FF
