:100000000C945E000C9486000C9486000C94860080
:100010000C9486000C9486000C9486000C94860048
:100020000C9486000C9486000C9486000C94860038
:100030000C9486000C9486000C9486000C94860028
:100040000C94FB030C9486000C94C9030C94A3033A
:100050000C9486000C9486000C9486000C94860008
:100060000C9486000C9486000000000024002700F9
:100070002A0000000008000201000003040700003D
:10008000000000000000010204081020408001026E
:1000900004081020010204081020000000002500C0
:1000A00028002B00040404040404040402020202D5
:1000B00002020303030303034504D10511241FBEF9
:1000C000CFEFD8E0DEBFCDBF11E0A0E0B1E0EAE5C0
:1000D000FEE002C005900D92A831B107D9F722E0E9
:1000E000A8E1B1E001C01D92A833B207E1F710E02A
:1000F000CDE5D0E004C02197FE010E94F505CC3586
:10010000D107C9F70E94E7040C9420070C94000063
:10011000AF92BF92CF92DF92EF92FF920F931F9315
:10012000CF93DF936C017B018B01040F151FEB0153
:100130005E01AE18BF08C017D10759F06991D6010A
:10014000ED91FC910190F081E02DC6010995892B7C
:1001500079F7C501DF91CF911F910F91FF90EF903B
:10016000DF90CF90BF90AF900895FC01538D448DE8
:10017000252F30E0842F90E0821B930B541710F052
:10018000CF96089501970895FC01918D828D98175F
:1001900061F0A28DAE0FBF2FB11D5D968C91928D37
:1001A0009F5F9F73928F90E008958FEF9FEF089568
:1001B000FC01918D828D981731F0828DE80FF11D31
:1001C000858D90E008958FEF9FEF0895FC01918D4C
:1001D000228D892F90E0805C9F4F821B91098F7345
:1001E0009927089581E891E00E94E60021E0892B9B
:1001F00009F420E0822F089580E090E0892B29F017
:100200000E94F20081110C9400000895FC01A48D5D
:10021000A80FB92FB11DA35ABF4F2C91848D90E028
:1002200001968F739927848FA689B7892C93A0890B
:10023000B1898C91837080648C93938D848D981395
:1002400006C00288F389E02D80818F7D8083089528
:10025000EF92FF920F931F93CF93DF93EC0181E016
:10026000888F9B8D8C8D98131AC0E889F9898081BD
:1002700085FF15C09FB7F894EE89FF896083E889F0
:10028000F98980818370806480839FBF81E090E0E2
:10029000DF91CF911F910F91FF90EF900895F62E6F
:1002A0000B8D10E00F5F1F4F0F731127E02E8C8D09
:1002B0008E110CC00FB607FCFACFE889F98980814E
:1002C00085FFF5CFCE010E940601F1CFEB8DEC0F3B
:1002D000FD2FF11DE35AFF4FF0829FB7F8940B8F6B
:1002E000EA89FB8980818062CFCFCF93DF93EC01D5
:1002F000888D8823B9F0AA89BB89E889F9898C910E
:1003000085FD03C0808186FD0DC00FB607FCF7CFC9
:100310008C9185FFF2CF808185FFEDCFCE010E94C9
:100320000601E9CFDF91CF91089590E0FC01EE58EE
:10033000FF4F2491FC01EA57FF4F3491FC01EC552B
:10034000FF4FE491EE23C9F0222339F0233001F16D
:10035000A8F4213019F1223029F1F0E0EE0FFF1F4F
:10036000E656FF4FA591B4918FB7F894EC916111C7
:1003700026C030953E233C938FBF08952730A9F0C7
:100380002830C9F0243049F7809180008F7D03C068
:10039000809180008F7780938000DFCF84B58F7746
:1003A00084BDDBCF84B58F7DFBCF8091B0008F778C
:1003B0008093B000D2CF8091B0008F7DF9CF3E2BDB
:1003C000DACFCF93DF9390E0FC01EA57FF4F2491FF
:1003D0008C559F4FFC0184918823D1F090E0880FC9
:1003E000991FFC01E859FF4FA591B491FC01E65615
:1003F000FF4FC591D49161110EC09FB7F8948C91B5
:10040000E22FE0958E238C932881E223E8839FBF1F
:10041000DF91CF9108958FB7F894EC91E22BEC9394
:100420008FBFF6CF3FB7F89480911D0190911E01C8
:10043000A0911F01B091200126B5A89B05C02F3FB8
:1004400019F00196A11DB11D3FBFBA2FA92F982FFA
:100450008827BC01CD01620F711D811D911D42E0F5
:10046000660F771F881F991F4A95D1F708952F921D
:100470003F924F925F926F927F928F929F92AF9234
:10048000BF92CF92DF92EF92FF920F931F93CF9381
:10049000DF93CDB7DEB729970FB6F894DEBF0FBE56
:1004A000CDBF1B018C01000F111F000F111FB0E009
:1004B000A0E0821593050CF06DC0209120023091D0
:1004C00021028217930708F049C09D01200F311FB8
:1004D000F901EF5DFE4F40815181628173816B01B3
:1004E000EE24FF24BC2C452E562E672E7724A42CF8
:1004F000842E90902602992061F0C99CF00111246D
:10050000BF2E949C20011124A52C949EF00111244F
:100510008F2EE0912C02C0902702D090280270907C
:100520002902E7111EC09C01220F331F280F391F1B
:100530002C0D3D1D40912902420F532F511DFA01F0
:10054000B08240912A02420F532F511DFA01A0821E
:1005500040912B02240F311DF901808201961496DF
:10056000A8CF2C0D3D1D472E552466247724442DFD
:10057000992051F0C92CD12CC49CB001C59C700DA0
:10058000D49C700D1124472FB9016E0F711DFB0112
:100590004083D0CF8091270290912802892B09F4C3
:1005A00080C0C0902D02D0902E02E0902F02F090DB
:1005B00030020E9412026C157D058E059F0550F4D5
:1005C0000E94120260932D0270932E0280932F02DC
:1005D000909330020E94120200912D0210912E027F
:1005E00020912F0230913002601B710B820B930B14
:1005F0006C32714081059105A0F2F894809122023D
:10060000909123029A838983E0912702F091280236
:10061000DF0111968081898790911E02E09131025D
:10062000F091320280913302992309F453C09081F2
:10063000982B98879081809589238F838F818C83D5
:1006400088E08B8358856F8149853B812C81898126
:100650009A81508347FD252F3A952083262F39F024
:10066000441F00C000006083000000C0F2CF38E0EB
:100670004D9160830000019761F7F0933202E0939F
:10068000310249873B832C839A83898378940E9423
:10069000120260932D0270932E0280932F0290938A
:1006A000300229960FB6F894DEBF0FBECDBFDF91A2
:1006B000CF911F910F91FF90EF90DF90CF90BF905F
:1006C000AF909F908F907F906F905F904F903F90F2
:1006D0002F9008959081982B9887908180958923F9
:1006E0008F838F818E8388E08D8358856F814985C4
:1006F0003D812E8189819A81508347FD252F00C03D
:1007000000C0208300C000C000C000C000C06083E3
:100710000000262F3A9541F0441F000000C000C0A1
:1007200000C000C000C0E8CF38E04D9100C0608339
:1007300000C0019709F7F0933202E0933102498734
:100740003D832E83A1CF1F920F920FB60F921124DB
:100750002F933F934F935F936F937F938F939F93C9
:10076000AF93BF93EF93FF9381E891E00E9406015E
:10077000FF91EF91BF91AF919F918F917F916F9179
:100780005F914F913F912F910F900FBE0F901F904F
:1007900018951F920F920FB60F9211242F938F93DB
:1007A0009F93EF93FF93E0919101F09192018081EB
:1007B000E0919701F091980182FD1BC0908180919A
:1007C0009A018F5F8F7320919B01821741F0E09116
:1007D0009A01F0E0EF57FE4F958F80939A01FF91B9
:1007E000EF919F918F912F910F900FBE0F901F90BF
:1007F00018958081F4CF1F920F920FB60F9211249B
:100800002F933F938F939F93AF93BF938091190141
:1008100090911A01A0911B01B0911C013091180117
:1008200023E0230F2D3758F50196A11DB11D20930C
:1008300018018093190190931A01A0931B01B093A2
:100840001C0180911D0190911E01A0911F01B0918A
:1008500020010196A11DB11D80931D0190931E01E1
:10086000A0931F01B0932001BF91AF919F918F91F1
:100870003F912F910F900FBE0F901F90189526E873
:10088000230F0296A11DB11DD2CF109284011092A8
:10089000830188EE93E0A0E0B0E08093850190931F
:1008A0008601A0938701B09388018AE091E090933C
:1008B00082018093810185EC90E090938E0180937A
:1008C0008D0184EC90E09093900180938F0180ECF7
:1008D00090E0909392018093910181EC90E090934D
:1008E00094018093930182EC90E090939601809321
:1008F000950186EC90E09093980180939701109277
:100900009A0110929B0110929C0110929D011092ED
:100910001F021092260210922D0210922E021092A7
:100920002F021092300281E080932C0280932902E2
:1009300010922A0292E090932B0280931E0288E488
:1009400090E090932302809322020E94FB059093F3
:10095000280280932702009789F128E4FC01119274
:100960002A95E9F788E190E0909321028093200294
:1009700083E090E0909325028093240280911F02EF
:10098000882341F061E083E00E94E10160E083E0C0
:100990000E949501E7EAF0E0E491F0E0EE0FFF1F1E
:1009A000E656FF4F859194919093320280933102E5
:1009B000E9E8F0E0E491E093330208951092230215
:1009C000109222021092210210922002D1CF78942C
:1009D00084B5826084BD84B5816084BD85B5826044
:1009E00085BD85B5816085BD80916E0081608093F5
:1009F0006E0010928100809181008260809381005E
:100A0000809181008160809381008091800081606D
:100A1000809380008091B10084608093B1008091C8
:100A2000B00081608093B00080917A0084608093F0
:100A30007A0080917A00826080937A0080917A00B7
:100A4000816080937A0080917A00806880937A0038
:100A50001092C100809124029091250297FD08C058
:100A600061E00E94E10160E0809124020E94950112
:100A700081E080931F0260912602623029F120916B
:100A80002702309128026150C9F070E08FEF91E0A9
:100A90000E94E105F9014091220250912302CF0109
:100AA000821B930B8417950760F44081469FC00119
:100AB000479F900D112490833196EDCF70E060E058
:100AC000E9CF82E08093260261E082E00E949501F6
:100AD000E0919101F091920182E08083E0918D019B
:100AE000F0918E011082E0918F01F09190018FECD6
:100AF000808310929901E0919501F091960186E032
:100B00008083E0919301F0919401808180618083E2
:100B1000E0919301F0919401808188608083E0915D
:100B20009301F0919401808180688083E09193012A
:100B3000F091940180818F7D8083CC24CA94DC2C39
:100B4000EC2CF12C812C912C5401AA9400E010E0A3
:100B5000C1E2D1E0FE01C192D192E192F19281E035
:100B6000E138F807C1F767E070E090E080E00E94AC
:100B7000370289929992A992B99281E0C138D80737
:100B8000C1F763E170E08CE090E00E94370201154C
:100B90001105F1F20E94F2008823D1F20E940000B8
:100BA000D7CF80912702909128020E9497068091CA
:100BB00024029091250297FD03C060E00C94E101AE
:100BC0000895AA1BBB1B51E107C0AA1FBB1FA61794
:100BD000B70710F0A61BB70B881F991F5A95A9F7E6
:100BE00080959095BC01CD010895EE0FFF1F0590F3
:100BF000F491E02D09940F931F93CF93DF938230EC
:100C0000910510F482E090E0E0913602F091370215
:100C100030E020E0B0E0A0E0309799F421153105F4
:100C200009F44AC0281B390B24303105D8F58A81D4
:100C30009B816115710589F1FB0193838283FE011C
:100C400011C0408151810281138148175907E0F09A
:100C50004817590799F4109761F012960C93129760
:100C600013961C933296CF01DF91CF911F910F9174
:100C700008950093360210933702F4CF2115310501
:100C800051F04217530738F0A901DB019A01BD0169
:100C9000DF01F801C1CFEF01F9CF909337028093C4
:100CA0003602CDCFFE01E20FF31F819391932250C4
:100CB000310939832883D7CF20913402309135020E
:100CC000232B41F42091020130910301309335022E
:100CD000209334022091000130910101211531054A
:100CE00041F42DB73EB74091040150910501241BFA
:100CF000350BE0913402F0913502E217F307A0F4CE
:100D00002E1B3F0B2817390778F0AC014E5F5F4F61
:100D10002417350748F04E0F5F1F5093350240935C
:100D20003402819391939FCFF0E0E0E09CCFCF938A
:100D3000DF930097E9F0FC01329713821282A091B1
:100D40003602B0913702ED0130E020E01097A1F4B7
:100D500020813181820F931F20913402309135021E
:100D60002817390709F061C0F0933502E093340287
:100D7000DF91CF910895EA01CE17DF07E8F54A81A8
:100D80005B819E0141155105B1F7E901FB83EA83BF
:100D900049915991C40FD51FEC17FD0761F480816B
:100DA00091810296840F951FE9019983888382813E
:100DB00093819B838A83F0E0E0E012968D919C9171
:100DC00013970097B9F52D913C911197CD0102969B
:100DD000820F931F20913402309135022817390772
:100DE00039F6309751F51092370210923602B093CF
:100DF0003502A0933402BCCFD383C283408151819A
:100E0000840F951FC817D90761F44E5F5F4F888123
:100E10009981480F591F518340838A819B81938315
:100E200082832115310509F0B0CFF0933702E093AA
:100E300036029ECFFD01DC01C0CF13821282D7CFD4
:100E400010E0CDE5D0E004C0FE010E94F50521963A
:0A0E5000CE35D107C9F7F894FFCFA3
:100E5A000000380280000000000028018800B50068
:080E6A007501E600C400D80088
:00000001FF
