:100000000C945E000C9486000C9486000C94860080
:100010000C9486000C9486000C9486000C94860048
:100020000C9486000C9486000C9486000C94860038
:100030000C9486000C9486000C9486000C94860028
:100040000C9408030C9486000C94D6020C94B00215
:100050000C9486000C9486000C9486000C94860008
:100060000C9486000C9486000000000024002700F9
:100070002A0000000008000201000003040700003D
:10008000000000000000010204081020408001026E
:1000900004081020010204081020000000002500C0
:1000A00028002B00040404040404040402020202D5
:1000B000020203030303030352038C0711241FBE30
:1000C000CFEFD8E0DEBFCDBF12E0A0E0B1E0EEEDB3
:1000D000F1E102C005900D92A239B107D9F723E0F2
:1000E000A2E9B2E001C01D92A435B207E1F710E029
:1000F000CDE5D0E004C02197FE010E94B007CC35C9
:10010000D107C9F70E94F4030C94E2080C94000094
:10011000AF92BF92CF92DF92EF92FF920F931F9315
:10012000CF93DF936C017B018B01040F151FEB0153
:100130005E01AE18BF08C017D10759F06991D6010A
:10014000ED91FC910190F081E02DC6010995892B7C
:1001500079F7C501DF91CF911F910F91FF90EF903B
:10016000DF90CF90BF90AF900895FC01538D448DE8
:10017000252F30E0842F90E0821B930B541710F052
:10018000CF96089501970895FC01918D828D98175F
:1001900061F0A28DAE0FBF2FB11D5D968C91928D37
:1001A0009F5F9F73928F90E008958FEF9FEF089568
:1001B000FC01918D828D981731F0828DE80FF11D31
:1001C000858D90E008958FEF9FEF0895FC01918D4C
:1001D000228D892F90E0805C9F4F821B91098F7345
:1001E000992708958DE992E00E94E60021E0892B8D
:1001F00009F420E0822F089580E090E0892B29F017
:100200000E94F20081110C9400000895FC01A48D5D
:10021000A80FB92FB11DA35ABF4F2C91848D90E028
:1002200001968F739927848FA689B7892C93A0890B
:10023000B1898C91837080648C93938D848D981395
:1002400006C00288F389E02D80818F7D8083089528
:10025000EF92FF920F931F93CF93DF93EC0181E016
:10026000888F9B8D8C8D98131AC0E889F9898081BD
:1002700085FF15C09FB7F894EE89FF896083E889F0
:10028000F98980818370806480839FBF81E090E0E2
:10029000DF91CF911F910F91FF90EF900895F62E6F
:1002A0000B8D10E00F5F1F4F0F731127E02E8C8D09
:1002B0008E110CC00FB607FCFACFE889F98980814E
:1002C00085FFF5CFCE010E940601F1CFEB8DEC0F3B
:1002D000FD2FF11DE35AFF4FF0829FB7F8940B8F6B
:1002E000EA89FB8980818062CFCFCF93DF93EC01D5
:1002F000888D8823B9F0AA89BB89E889F9898C910E
:1003000085FD03C0808186FD0DC00FB607FCF7CFC9
:100310008C9185FFF2CF808185FFEDCFCE010E94C9
:100320000601E9CFDF91CF91089590E0FC01EE58EE
:10033000FF4F2491FC01EA57FF4F3491FC01EC552B
:10034000FF4FE491EE23C9F0222339F0233001F16D
:10035000A8F4213019F1223029F1F0E0EE0FFF1F4F
:10036000E656FF4FA591B4918FB7F894EC916111C7
:1003700026C030953E233C938FBF08952730A9F0C7
:100380002830C9F0243049F7809180008F7D03C068
:10039000809180008F7780938000DFCF84B58F7746
:1003A00084BDDBCF84B58F7DFBCF8091B0008F778C
:1003B0008093B000D2CF8091B0008F7DF9CF3E2BDB
:1003C000DACFCF93DF9390E0FC01EA57FF4F2491FF
:1003D0008C559F4FFC0184918823D1F090E0880FC9
:1003E000991FFC01E859FF4FA591B491FC01E65615
:1003F000FF4FC591D49161110EC09FB7F8948C91B5
:10040000E22FE0958E238C932881E223E8839FBF1F
:10041000DF91CF9108958FB7F894EC91E22BEC9394
:100420008FBFF6CF3FB7F8948091970290919802D2
:10043000A0919902B0919A0226B5A89B05C02F3FC2
:1004400019F00196A11DB11D3FBFBA2FA92F982FFA
:100450008827BC01CD01620F711D811D911D42E0F5
:10046000660F771F881F991F4A95D1F70895CF927D
:10047000DF92EF92FF920F931F93CF93DF936B0165
:100480007C0140913E0350913F0370E060E0809119
:100490004303909144030E94DB08870122273327FE
:1004A000B02F6D2DA80130E020E0CC2D80913C03D1
:1004B00090913D0328173907C0F5DC2F8091420346
:1004C000762FAB2F882371F0849FF001859FF00D6C
:1004D0001124AF2F869FF00111247F2F8C9DC00126
:1004E0001124D92FE0914803809143039091440354
:1004F000F0914503EF1328C0F901EE0FFF1FE20F43
:10050000F31F8E0F9F1FE0914503E80FF92FF11D98
:10051000A083E0914603E80FF92FF11D70837091DD
:100520004703870F911DFC01D0832F5F3F4F2F3072
:10053000310509F0BBCFDF91CF911F910F91FF9053
:10054000EF90DF90CF9008958901000F111F000FE9
:10055000111F800F911FE80FF92FF11D1082D3CFCB
:100560001F920F920FB60F9211242F933F934F9328
:100570005F936F937F938F939F93AF93BF93EF930B
:10058000FF938DE992E00E940601FF91EF91BF91E8
:10059000AF919F918F917F916F915F914F913F911B
:1005A0002F910F900FBE0F901F9018951F920F92D2
:1005B0000FB60F9211242F938F939F93EF93FF9376
:1005C000E091AD02F091AE028081E091B302F09132
:1005D000B40282FD1BC090818091B6028F5F8F7341
:1005E0002091B702821741F0E091B602F0E0E356A5
:1005F000FD4F958F8093B602FF91EF919F918F9160
:100600002F910F900FBE0F901F9018958081F4CFFF
:100610001F920F920FB60F9211242F933F938F9337
:100620009F93AF93BF938091930290919402A09176
:100630009502B09196023091920223E0230F2D375C
:1006400058F50196A11DB11D20939202809393024B
:1006500090939402A0939502B09396028091970292
:1006600090919802A0919902B0919A020196A11DD1
:10067000B11D8093970290939802A0939902B09332
:100680009A02BF91AF919F918F913F912F910F90BF
:100690000FBE0F901F90189526E8230F0296A11DFC
:1006A000B11DD2CF1092A00210929F0288EE93E06B
:1006B000A0E0B0E08093A1029093A202A093A302D5
:1006C000B093A4028AE091E090939E0280939D02F1
:1006D00085EC90E09093AA028093A90284EC90E0CC
:1006E0009093AC028093AB0280EC90E09093AE02CA
:1006F0008093AD0281EC90E09093B0028093AF02C2
:1007000082EC90E09093B2028093B10286EC90E08C
:100710009093B4028093B3021092B6021092B70283
:100720001092B8021092B90210923B031092420349
:100730001092490310924A0310924B0310924C03FB
:10074000109248031092450381E08093460392E0A3
:100750009093470380933A0384EB90E090933F0398
:1007600080933E030E94B607909344038093430313
:10077000009789F124EBFC0111922A95E9F78CE3AB
:1007800090E090933D0380933C0386E090E090934B
:1007900041038093400380913B03882341F061E053
:1007A00086E00E94E10160E086E00E949501EAEAAD
:1007B000F0E0E491F0E0EE0FFF1FE656FF4F859169
:1007C000949190934E0380934D03ECE8F0E0E49114
:1007D000E0934F03089510923F0310923E0310924E
:1007E0003D0310923C03D1CFCF93DF93CDB7DEB75B
:1007F00029970FB6F894DEBF0FBECDBF789484B5AD
:10080000826084BD84B5816084BD85B5826085BD0C
:1008100085B5816085BD80916E00816080936E009A
:10082000109281008091810082608093810080918C
:10083000810081608093810080918000816080933D
:1008400080008091B10084608093B1008091B000FD
:1008500081608093B00080917A00846080937A00F8
:1008600080917A00826080937A0080917A00816022
:1008700080937A0080917A00806880937A00109249
:10088000C100809140039091410397FD08C061E051
:100890000E94E10160E0809140030E94950181E0A7
:1008A00080933B0360914203633329F1209143031A
:1008B000309144036150C9F070E08FEF92E30E94E1
:1008C0009C07F90140913E0350913F03CF01821BE9
:1008D000930B8417950760F44081469FC001479FA2
:1008E000900D112490833196EDCF70E060E0E9CF58
:1008F00083E38093420361E082E00E949501E091EE
:10090000AD02F091AE0282E08083E091A902F09105
:10091000AA021082E091AB02F091AC028FEC8083CE
:100920001092B502E091B102F091B20286E08083AC
:10093000E091AF02F091B002808180618083E0910C
:10094000AF02F091B002808188608083E091AF02B5
:10095000F091B002808180688083E091AF02F091D5
:10096000B00280818F7D80830AE211E090E0E92E61
:1009700090E0F92E28E0D22E80919C0280939B0279
:10098000815F80939C0221E00831120731F468EA0C
:100990007AE88DE590E00E94370281E00532180781
:1009A00031F46FEF78EF80EF90E00E94370221E0A2
:1009B0000F32120731F46FEF7FEF80E090E00E947A
:1009C000370281E00433180731F460E273E58BE409
:1009D00090E00E94370221E00E33120731F46EEBF3
:1009E00070EF8AEF90E00E9437026FEF70E080E0D6
:1009F00090E00E94370281E00434180731F466EB7E
:100A000075E980E090E00E94370221E00E34120781
:100A100031F460E070E08CEC90E00E94370281E0FD
:100A20000236180731F462E37FE78DEC90E00E9414
:100A3000370221E00936120731F460E07BE486E9F1
:100A400090E00E94370281E00F36180731F461E22E
:100A500071E98DEE90E00E94370221E0063712071F
:100A600031F460E07FEF8FE790E00E94370281E091
:100A70000138180731F46EE179E682ED90E00E94CA
:100A8000370221E00B38120731F46BEA77E480E09B
:100A900090E00E94370281E00239180731F460EDDE
:100AA0007DEF8FEF90E00E94370221E008391207B6
:100AB00031F46BE870E080E090E00E94370281E062
:100AC000013A180731F461E273E485E690E00E9490
:100AD000370221E00B3A120731F460E272E381E061
:100AE00090E00E94370281E0053B180731F460E88E
:100AF00074E587EE90E00E94370221E00E3B12077A
:100B000031F46DEA7BED8AEB90E00E94370281E0E0
:100B10000B3C180731F463E974E18FEF90E00E9419
:100B2000370221E0043D120731F460E070ED8EE100
:100B300090E00E94370282E00330180731F460E051
:100B400077ED8FEF90E00E94370221E00C3D120715
:100B500031F460E870E880E890E00E94370282E0BB
:100B60000E34180731F460E07FEF80E090E00E94DF
:100B7000370221E0013E120731F462E870E08BE4B5
:100B800090E00E94370281E0083E180731F460E1EE
:100B900079EE8DEF90E00E94370221E00E3E1207C1
:100BA00029F46FEF70E0CB010E94370281E0063F2D
:100BB000180731F468E97FEF88E990E00E94370276
:100BC00022E00030120731F46BE375EB8FEC90E01C
:100BD0000E94370282E00830180731F460E070E8C4
:100BE00080E890E00E94370222E00E30120731F4D4
:100BF0006EEE7EEE8FEA90E00E94370282E00731CF
:100C0000180731F464E576E788E990E00E9437023E
:100C100022E00132120731F462E87CED80EF90E0CF
:100C20000E94370282E00C32180731F46FE679E750
:100C300081E090E00E94370222E00633120731F48F
:100C400068E175E78FEF90E00E94370281E00E3592
:100C5000180731F460E070E08FEF90E00E943702F7
:100C600022E00E33120731F460E079E98FEF90E073
:100C70000E94370282E00B34180731F467E57BE805
:100C80008EE290E00E94370222E00435120731F430
:100C900060EC70EC80EC90E00E94370282E00B3553
:100CA000180731F460EC70EF80ED90E00E9437029D
:100CB00022E00436120731F460E870E880E090E04A
:100CC0000E94370282E00936180731F467E473E6C0
:100CD0008FEF90E00E94370222E00037120731F4D4
:100CE0006BEA75EE83EF90E00E94370282E00837EE
:100CF000180731F46FEF70E08BE890E00E94370244
:100D000022E00F37120731F463EB7EED85EF90E0C0
:100D10000E94370282E00538180731F46FEF7FEF49
:100D20008FEF90E00E94370222E00B38120731F477
:100D300060E07FEF8FEF90E00E94370280914303E5
:100D400090914403892B09F47FC0809049039090CF
:100D50004A03A0904B03B0904C030E941202681506
:100D600079058A059B0550F40E941202609349039D
:100D700070934A0380934B0390934C030E9412029A
:100D80008090490390904A03A0904B03B0904C038D
:100D9000681979098A099B096C32714081059105AE
:100DA000A0F2F89480913E0390913F039A83898347
:100DB000E0914303F0914403DF011196808189871C
:100DC00090913A03E0914D03F0914E0380914F03CF
:100DD000992309F469C09081982B98879081809518
:100DE00089238F838F818C83DB8258856F8149852E
:100DF0003B812C8189819A81508347FD252F3A952B
:100E00002083262F39F0441F00C0000060830000BB
:100E100000C0F2CF38E04D9160830000019761F788
:100E2000F0934E03E0934D0349873B832C839A83D1
:100E3000898378940E9412026093490370934A0355
:100E400080934B0390934C030E9412022B013C01B0
:100E500084E6882E912CA12CB12C0E9412026419D8
:100E6000750986099709683E734081059105A8F3C5
:100E700081E0881A9108A108B10828EE420E23E00B
:100E8000521E611C711C81149104A104B10429F744
:100E9000E114F10409F470CD0E94F200882309F4F2
:100EA0006BCD0E94000068CD9081982B988790812F
:100EB000809589238F838F818E83DD8258856F8112
:100EC00049853D812E8189819A81508347FD252F57
:100ED00000C000C0208300C000C000C000C000C02F
:100EE00060830000262F3A9541F0441F000000C0A7
:100EF00000C000C000C000C0E8CF38E04D9100C085
:100F0000608300C0019709F7F0934E03E0934D030F
:100F100049873D832E838BCF809143039091440377
:100F20000E945208809140039091410397FD03C0B5
:100F300060E00C94E1010895AA1BBB1B51E107C0BE
:100F4000AA1FBB1FA617B70710F0A61BB70B881F59
:100F5000991F5A95A9F780959095BC01CD010895E8
:100F6000EE0FFF1F0590F491E02D09940F931F934E
:100F7000CF93DF938230910510F482E090E0E0910E
:100F80005203F091530330E020E0B0E0A0E030974E
:100F900099F42115310509F44AC0281B390B243076
:100FA0003105D8F58A819B816115710589F1FB01B5
:100FB00093838283FE0111C040815181028113819C
:100FC00048175907E0F04817590799F4109761F04E
:100FD00012960C93129713961C933296CF01DF91C1
:100FE000CF911F910F9108950093520310935303D3
:100FF000F4CF2115310551F04217530738F0A901FC
:10100000DB019A01BD01DF01F801C1CFEF01F9CF8A
:101010009093530380935203CDCFFE01E20FF31F51
:10102000819391932250310939832883D7CF20911E
:10103000500330915103232B41F420910201309150
:10104000030130935103209350032091000130910C
:1010500001012115310541F42DB73EB7409104013E
:1010600050910501241B350BE0915003F091510381
:10107000E217F307A0F42E1B3F0B2817390778F06F
:10108000AC014E5F5F4F2417350748F04E0F5F1FCE
:101090005093510340935003819391939FCFF0E07D
:1010A000E0E09CCFCF93DF930097E9F0FC0132970B
:1010B00013821282A0915203B0915303ED0130E0EC
:1010C00020E01097A1F420813181820F931F20919D
:1010D0005003309151032817390709F061C0F0938C
:1010E0005103E0935003DF91CF910895EA01CE17A9
:1010F000DF07E8F54A815B819E0141155105B1F793
:10110000E901FB83EA8349915991C40FD51FEC177C
:10111000FD0761F4808191810296840F951FE9019A
:1011200099838883828193819B838A83F0E0E0E0C6
:1011300012968D919C9113970097B9F52D913C9142
:101140001197CD010296820F931F20915003309189
:1011500051032817390739F6309751F51092530388
:1011600010925203B0935103A0935003BCCFD3838A
:10117000C28340815181840F951FC817D90761F43C
:101180004E5F5F4F88819981480F591F518340837B
:101190008A819B81938382832115310509F0B0CF29
:1011A000F0935303E09352039ECFFD01DC01C0CFC7
:1011B00013821282D7CFDC0101C06D9341505040A1
:1011C000E0F7089510E0CDE5D0E004C0FE010E94F4
:0E11D000B0072196CE35D107C9F7F894FFCFAE
:1011DE000000540380000000000028018800B500C4
:1011EE007501E600C400D800416972466F726365EE
:1011FE00426C756500416C696365426C75650041B2
:10120E007175610041726D79477265656E00426C51
:10121E006F6E6400426F6E6469426C756500426F5A
:10122E0073746F6E556E69766572736974795265F3
:10123E00640042726F6E7A650042726F776E004381
:10124E006172726F74004368617274726575736552
:10125E000043686F636F6C61746500436F62616C0D
:10126E007400437265616D004461726B626C7565EA
:10127E00004461726B62726F776E004461726B67CD
:10128E007265656E004461726B70696E6B004461CD
:10129E00726B746561677265656E0044656570702A
:1012AE00696E6B00456D6572616C640047726179A1
:1012BE0000496E6469676F004C656D6F6E004D611D
:1012CE0067656E7461004D696E74477265656E0078
:1012DE004F6C64476F6C64004F6C697665005061AB
:1012EE006C65626C75650050616C6562726F776ECD
:1012FE000050616C6579656C6C6F770050696E6536
:10130E00477265656E0050756D706B696E00536146
:10131E00666574794F72616E6765005365614772D9
:10132E0065656E0053696C7665720054656147722F
:10133E0065656E005465616C00546F6D61746F006D
:10134E0056616E696C6C610056696F6C65740057FE
:10135E00686561740057686974650059656C6C6FD7
:02136E00770006
:00000001FF
